{
  "_format": "hh-sol-artifact-1",
  "contractName": "TwitterContract",
  "sourceName": "contracts/TwitterContract.sol",
  "abi": [
    {
      "anonymous": false,
      "inputs": [
        {
          "indexed": false,
          "internalType": "uint256",
          "name": "tweetID",
          "type": "uint256"
        },
        {
          "indexed": false,
          "internalType": "address",
          "name": "owner",
          "type": "address"
        },
        {
          "indexed": false,
          "internalType": "string",
          "name": "tweetText",
          "type": "string"
        },
        {
          "indexed": false,
          "internalType": "bool",
          "name": "isDeleted",
          "type": "bool"
        },
        {
          "indexed": false,
          "internalType": "uint256",
          "name": "publishedTime",
          "type": "uint256"
        }
      ],
      "name": "CreateTweet",
      "type": "event"
    },
    {
      "anonymous": false,
      "inputs": [
        {
          "indexed": false,
          "internalType": "uint256",
          "name": "tweetID",
          "type": "uint256"
        },
        {
          "indexed": false,
          "internalType": "bool",
          "name": "isDeleted",
          "type": "bool"
        },
        {
          "indexed": false,
          "internalType": "uint256",
          "name": "publishedTime",
          "type": "uint256"
        }
      ],
      "name": "DeleteTweet",
      "type": "event"
    },
    {
      "anonymous": false,
      "inputs": [
        {
          "indexed": false,
          "internalType": "uint256",
          "name": "tweetID",
          "type": "uint256"
        },
        {
          "indexed": false,
          "internalType": "address",
          "name": "owner",
          "type": "address"
        },
        {
          "indexed": false,
          "internalType": "string",
          "name": "tweetText",
          "type": "string"
        },
        {
          "indexed": false,
          "internalType": "bool",
          "name": "isDeleted",
          "type": "bool"
        },
        {
          "indexed": false,
          "internalType": "uint256",
          "name": "publishedTime",
          "type": "uint256"
        }
      ],
      "name": "UpdateTweet",
      "type": "event"
    },
    {
      "inputs": [],
      "name": "GetNewId",
      "outputs": [
        {
          "internalType": "uint256",
          "name": "",
          "type": "uint256"
        }
      ],
      "stateMutability": "view",
      "type": "function"
    },
    {
      "inputs": [
        {
          "internalType": "string",
          "name": "_tweetText",
          "type": "string"
        }
      ],
      "name": "createTweet",
      "outputs": [],
      "stateMutability": "nonpayable",
      "type": "function"
    },
    {
      "inputs": [
        {
          "internalType": "uint256",
          "name": "_tweetID",
          "type": "uint256"
        }
      ],
      "name": "deleteTweet",
      "outputs": [],
      "stateMutability": "nonpayable",
      "type": "function"
    },
    {
      "inputs": [],
      "name": "getAllAvailableTweets",
      "outputs": [
        {
          "components": [
            {
              "internalType": "uint256",
              "name": "tweetID",
              "type": "uint256"
            },
            {
              "internalType": "address",
              "name": "owner",
              "type": "address"
            },
            {
              "internalType": "string",
              "name": "tweetText",
              "type": "string"
            },
            {
              "internalType": "bool",
              "name": "isDeleted",
              "type": "bool"
            },
            {
              "internalType": "uint256",
              "name": "publishedTime",
              "type": "uint256"
            }
          ],
          "internalType": "struct TwitterContract.Tweet[]",
          "name": "",
          "type": "tuple[]"
        }
      ],
      "stateMutability": "view",
      "type": "function"
    },
    {
      "inputs": [],
      "name": "getMyAvailableTweets",
      "outputs": [
        {
          "components": [
            {
              "internalType": "uint256",
              "name": "tweetID",
              "type": "uint256"
            },
            {
              "internalType": "address",
              "name": "owner",
              "type": "address"
            },
            {
              "internalType": "string",
              "name": "tweetText",
              "type": "string"
            },
            {
              "internalType": "bool",
              "name": "isDeleted",
              "type": "bool"
            },
            {
              "internalType": "uint256",
              "name": "publishedTime",
              "type": "uint256"
            }
          ],
          "internalType": "struct TwitterContract.Tweet[]",
          "name": "",
          "type": "tuple[]"
        }
      ],
      "stateMutability": "view",
      "type": "function"
    },
    {
      "inputs": [
        {
          "internalType": "uint256",
          "name": "",
          "type": "uint256"
        }
      ],
      "name": "tweets",
      "outputs": [
        {
          "internalType": "uint256",
          "name": "tweetID",
          "type": "uint256"
        },
        {
          "internalType": "address",
          "name": "owner",
          "type": "address"
        },
        {
          "internalType": "string",
          "name": "tweetText",
          "type": "string"
        },
        {
          "internalType": "bool",
          "name": "isDeleted",
          "type": "bool"
        },
        {
          "internalType": "uint256",
          "name": "publishedTime",
          "type": "uint256"
        }
      ],
      "stateMutability": "view",
      "type": "function"
    },
    {
      "inputs": [
        {
          "internalType": "uint256",
          "name": "_tweetID",
          "type": "uint256"
        },
        {
          "internalType": "string",
          "name": "_tweetText",
          "type": "string"
        }
      ],
      "name": "updateTweet",
      "outputs": [],
      "stateMutability": "nonpayable",
      "type": "function"
    }
  ],
  "bytecode": "0x608060405234801561001057600080fd5b506117dd806100206000396000f3fe608060405234801561001057600080fd5b506004361061007d5760003560e01c80637c0aa77a1161005b5780637c0aa77a146100da5780637c9cd2bc146100f657806395d7da3f14610112578063e8d857b0146101305761007d565b80632c37bd44146100825780635775912a146100a05780635e18f931146100bc575b600080fd5b61008a610164565b60405161009791906113f0565b60405180910390f35b6100ba60048036038101906100b591906110d8565b61016e565b005b6100c461027c565b6040516100d191906113ae565b60405180910390f35b6100f460048036038101906100ef9190611101565b610737565b005b610110600480360381019061010b9190611097565b610846565b005b61011a610a05565b60405161012791906113ae565b60405180910390f35b61014a600480360381019061014591906110d8565b610e10565b60405161015b95949392919061140b565b60405180910390f35b6000600254905090565b3373ffffffffffffffffffffffffffffffffffffffff166003600083815260200190815260200160002060009054906101000a900473ffffffffffffffffffffffffffffffffffffffff1673ffffffffffffffffffffffffffffffffffffffff161461020f576040517f08c379a0000000000000000000000000000000000000000000000000000000008152600401610206906113d0565b60405180910390fd5b600160008083815260200190815260200160002060030160006101000a81548160ff0219169083151502179055507ff1ad5b9f5393b0f21a17b71eedd438d12788b4c9b9ebfae71b41b0984c7e39cb8160014260405161027193929190611465565b60405180910390a150565b6060600060018054905067ffffffffffffffff8111156102c5577f4e487b7100000000000000000000000000000000000000000000000000000000600052604160045260246000fd5b6040519080825280602002602001820160405280156102fe57816020015b6102eb610f30565b8152602001906001900390816102e35790505b5090506000805b60018054905081101561060b573373ffffffffffffffffffffffffffffffffffffffff166003600060018481548110610367577f4e487b7100000000000000000000000000000000000000000000000000000000600052603260045260246000fd5b9060005260206000200154815260200190815260200160002060009054906101000a900473ffffffffffffffffffffffffffffffffffffffff1673ffffffffffffffffffffffffffffffffffffffff161480156104285750600080600183815481106103fc577f4e487b7100000000000000000000000000000000000000000000000000000000600052603260045260246000fd5b9060005260206000200154815260200190815260200160002060030160009054906101000a900460ff16155b156105f8576000806001838154811061046a577f4e487b7100000000000000000000000000000000000000000000000000000000600052603260045260246000fd5b906000526020600020015481526020019081526020016000206040518060a0016040529081600082015481526020016001820160009054906101000a900473ffffffffffffffffffffffffffffffffffffffff1673ffffffffffffffffffffffffffffffffffffffff1673ffffffffffffffffffffffffffffffffffffffff1681526020016002820180546104fe906115e2565b80601f016020809104026020016040519081016040528092919081815260200182805461052a906115e2565b80156105775780601f1061054c57610100808354040283529160200191610577565b820191906000526020600020905b81548152906001019060200180831161055a57829003601f168201915b505050505081526020016003820160009054906101000a900460ff161515151581526020016004820154815250508383815181106105de577f4e487b7100000000000000000000000000000000000000000000000000000000600052603260045260246000fd5b602002602001018190525081806105f490611645565b9250505b808061060390611645565b915050610305565b5060008167ffffffffffffffff81111561064e577f4e487b7100000000000000000000000000000000000000000000000000000000600052604160045260246000fd5b60405190808252806020026020018201604052801561068757816020015b610674610f30565b81526020019060019003908161066c5790505b50905060005b8281101561072d578381815181106106ce577f4e487b7100000000000000000000000000000000000000000000000000000000600052603260045260246000fd5b602002602001015182828151811061070f577f4e487b7100000000000000000000000000000000000000000000000000000000600052603260045260246000fd5b6020026020010181905250808061072590611645565b91505061068d565b5080935050505090565b3373ffffffffffffffffffffffffffffffffffffffff166003600084815260200190815260200160002060009054906101000a900473ffffffffffffffffffffffffffffffffffffffff1673ffffffffffffffffffffffffffffffffffffffff16146107d8576040517f08c379a00000000000000000000000000000000000000000000000000000000081526004016107cf906113d0565b60405180910390fd5b806000808481526020019081526020016000206002019080519060200190610801929190610f77565b507f01fe166d0ee23c5dc8aca33f2fdaeb08b412a722f9a36f3591a2d297dc57a4b982338360004260405161083a95949392919061140b565b60405180910390a15050565b6000610850610efb565b9050806002819055506040518060a001604052808281526020013373ffffffffffffffffffffffffffffffffffffffff168152602001838152602001600015158152602001428152506000808381526020019081526020016000206000820151816000015560208201518160010160006101000a81548173ffffffffffffffffffffffffffffffffffffffff021916908373ffffffffffffffffffffffffffffffffffffffff1602179055506040820151816002019080519060200190610918929190610f77565b5060608201518160030160006101000a81548160ff021916908315150217905550608082015181600401559050506001819080600181540180825580915050600190039060005260206000200160009091909190915055336003600083815260200190815260200160002060006101000a81548173ffffffffffffffffffffffffffffffffffffffff021916908373ffffffffffffffffffffffffffffffffffffffff1602179055507f612dc6ffbd68001b6946ddbc60e9200814b8dae80ecb5e51bb89f97f25d71c098133846000426040516109f995949392919061140b565b60405180910390a15050565b6060600060018054905067ffffffffffffffff811115610a4e577f4e487b7100000000000000000000000000000000000000000000000000000000600052604160045260246000fd5b604051908082528060200260200182016040528015610a8757816020015b610a74610f30565b815260200190600190039081610a6c5790505b5090506000805b600180549050811015610ce45760008060018381548110610ad8577f4e487b7100000000000000000000000000000000000000000000000000000000600052603260045260246000fd5b9060005260206000200154815260200190815260200160002060030160009054906101000a900460ff16610cd15760008060018381548110610b43577f4e487b7100000000000000000000000000000000000000000000000000000000600052603260045260246000fd5b906000526020600020015481526020019081526020016000206040518060a0016040529081600082015481526020016001820160009054906101000a900473ffffffffffffffffffffffffffffffffffffffff1673ffffffffffffffffffffffffffffffffffffffff1673ffffffffffffffffffffffffffffffffffffffff168152602001600282018054610bd7906115e2565b80601f0160208091040260200160405190810160405280929190818152602001828054610c03906115e2565b8015610c505780601f10610c2557610100808354040283529160200191610c50565b820191906000526020600020905b815481529060010190602001808311610c3357829003601f168201915b505050505081526020016003820160009054906101000a900460ff16151515158152602001600482015481525050838381518110610cb7577f4e487b7100000000000000000000000000000000000000000000000000000000600052603260045260246000fd5b60200260200101819052508180610ccd90611645565b9250505b8080610cdc90611645565b915050610a8e565b5060008167ffffffffffffffff811115610d27577f4e487b7100000000000000000000000000000000000000000000000000000000600052604160045260246000fd5b604051908082528060200260200182016040528015610d6057816020015b610d4d610f30565b815260200190600190039081610d455790505b50905060005b82811015610e0657838181518110610da7577f4e487b7100000000000000000000000000000000000000000000000000000000600052603260045260246000fd5b6020026020010151828281518110610de8577f4e487b7100000000000000000000000000000000000000000000000000000000600052603260045260246000fd5b60200260200101819052508080610dfe90611645565b915050610d66565b5080935050505090565b60006020528060005260406000206000915090508060000154908060010160009054906101000a900473ffffffffffffffffffffffffffffffffffffffff1690806002018054610e5f906115e2565b80601f0160208091040260200160405190810160405280929190818152602001828054610e8b906115e2565b8015610ed85780601f10610ead57610100808354040283529160200191610ed8565b820191906000526020600020905b815481529060010190602001808311610ebb57829003601f168201915b5050505050908060030160009054906101000a900460ff16908060040154905085565b6000444233604051602001610f1293929190611371565b6040516020818303038152906040528051906020012060001c905090565b6040518060a0016040528060008152602001600073ffffffffffffffffffffffffffffffffffffffff16815260200160608152602001600015158152602001600081525090565b828054610f83906115e2565b90600052602060002090601f016020900481019282610fa55760008555610fec565b82601f10610fbe57805160ff1916838001178555610fec565b82800160010185558215610fec579182015b82811115610feb578251825591602001919060010190610fd0565b5b509050610ff99190610ffd565b5090565b5b80821115611016576000816000905550600101610ffe565b5090565b600061102d611028846114c1565b61149c565b90508281526020810184848401111561104557600080fd5b6110508482856115a0565b509392505050565b600082601f83011261106957600080fd5b813561107984826020860161101a565b91505092915050565b60008135905061109181611790565b92915050565b6000602082840312156110a957600080fd5b600082013567ffffffffffffffff8111156110c357600080fd5b6110cf84828501611058565b91505092915050565b6000602082840312156110ea57600080fd5b60006110f884828501611082565b91505092915050565b6000806040838503121561111457600080fd5b600061112285828601611082565b925050602083013567ffffffffffffffff81111561113f57600080fd5b61114b85828601611058565b9150509250929050565b600061116183836112c6565b905092915050565b61117281611558565b82525050565b61118181611558565b82525050565b61119861119382611558565b61168e565b82525050565b60006111a982611502565b6111b38185611525565b9350836020820285016111c5856114f2565b8060005b8581101561120157848403895281516111e28582611155565b94506111ed83611518565b925060208a019950506001810190506111c9565b50829750879550505050505092915050565b61121c8161156a565b82525050565b61122b8161156a565b82525050565b600061123c8261150d565b6112468185611536565b93506112568185602086016115af565b61125f81611749565b840191505092915050565b60006112758261150d565b61127f8185611547565b935061128f8185602086016115af565b61129881611749565b840191505092915050565b60006112b0601783611547565b91506112bb82611767565b602082019050919050565b600060a0830160008301516112de600086018261133c565b5060208301516112f16020860182611169565b50604083015184820360408601526113098282611231565b915050606083015161131e6060860182611213565b506080830151611331608086018261133c565b508091505092915050565b61134581611596565b82525050565b61135481611596565b82525050565b61136b61136682611596565b6116b2565b82525050565b600061137d828661135a565b60208201915061138d828561135a565b60208201915061139d8284611187565b601482019150819050949350505050565b600060208201905081810360008301526113c8818461119e565b905092915050565b600060208201905081810360008301526113e9816112a3565b9050919050565b6000602082019050611405600083018461134b565b92915050565b600060a082019050611420600083018861134b565b61142d6020830187611178565b818103604083015261143f818661126a565b905061144e6060830185611222565b61145b608083018461134b565b9695505050505050565b600060608201905061147a600083018661134b565b6114876020830185611222565b611494604083018461134b565b949350505050565b60006114a66114b7565b90506114b28282611614565b919050565b6000604051905090565b600067ffffffffffffffff8211156114dc576114db61171a565b5b6114e582611749565b9050602081019050919050565b6000819050602082019050919050565b600081519050919050565b600081519050919050565b6000602082019050919050565b600082825260208201905092915050565b600082825260208201905092915050565b600082825260208201905092915050565b600061156382611576565b9050919050565b60008115159050919050565b600073ffffffffffffffffffffffffffffffffffffffff82169050919050565b6000819050919050565b82818337600083830152505050565b60005b838110156115cd5780820151818401526020810190506115b2565b838111156115dc576000848401525b50505050565b600060028204905060018216806115fa57607f821691505b6020821081141561160e5761160d6116eb565b5b50919050565b61161d82611749565b810181811067ffffffffffffffff8211171561163c5761163b61171a565b5b80604052505050565b600061165082611596565b91507fffffffffffffffffffffffffffffffffffffffffffffffffffffffffffffffff821415611683576116826116bc565b5b600182019050919050565b6000611699826116a0565b9050919050565b60006116ab8261175a565b9050919050565b6000819050919050565b7f4e487b7100000000000000000000000000000000000000000000000000000000600052601160045260246000fd5b7f4e487b7100000000000000000000000000000000000000000000000000000000600052602260045260246000fd5b7f4e487b7100000000000000000000000000000000000000000000000000000000600052604160045260246000fd5b6000601f19601f8301169050919050565b60008160601b9050919050565b7f596f7520617265206e6f74207477656574206f776e6572000000000000000000600082015250565b61179981611596565b81146117a457600080fd5b5056fea2646970667358221220168aecf4107f0a4bfb3c61b41c9be181e9501dd891e9cd1898ef99d0d6fe7f7864736f6c63430008040033",
  "linkReferences": {},
  "deployedLinkReferences": {}
}